{
  "contractName": "Chain",
  "abi": [
    {
      "inputs": [],
      "payable": false,
      "stateMutability": "nonpayable",
      "type": "constructor"
    },
    {
      "constant": true,
      "inputs": [
        {
          "internalType": "uint256",
          "name": "",
          "type": "uint256"
        }
      ],
      "name": "itemArray",
      "outputs": [
        {
          "internalType": "uint256",
          "name": "id",
          "type": "uint256"
        },
        {
          "internalType": "string",
          "name": "productName",
          "type": "string"
        },
        {
          "internalType": "address",
          "name": "owner",
          "type": "address"
        },
        {
          "internalType": "string",
          "name": "location",
          "type": "string"
        }
      ],
      "payable": false,
      "stateMutability": "view",
      "type": "function"
    },
    {
      "constant": true,
      "inputs": [],
      "name": "productCount",
      "outputs": [
        {
          "internalType": "uint256",
          "name": "",
          "type": "uint256"
        }
      ],
      "payable": false,
      "stateMutability": "view",
      "type": "function"
    },
    {
      "constant": true,
      "inputs": [
        {
          "internalType": "uint256",
          "name": "_id",
          "type": "uint256"
        }
      ],
      "name": "productExists",
      "outputs": [
        {
          "internalType": "bool",
          "name": "",
          "type": "bool"
        }
      ],
      "payable": false,
      "stateMutability": "view",
      "type": "function"
    },
    {
      "constant": false,
      "inputs": [
        {
          "internalType": "uint256",
          "name": "_id",
          "type": "uint256"
        },
        {
          "internalType": "string",
          "name": "_productName",
          "type": "string"
        },
        {
          "internalType": "address",
          "name": "_owner",
          "type": "address"
        },
        {
          "internalType": "string",
          "name": "_location",
          "type": "string"
        }
      ],
      "name": "storeProduct",
      "outputs": [
        {
          "internalType": "bool",
          "name": "",
          "type": "bool"
        }
      ],
      "payable": false,
      "stateMutability": "nonpayable",
      "type": "function"
    }
  ],
  "bytecode": "0x60806040526000805534801561001457600080fd5b5061007e60006040518060400160405280600d81526020016c199a5c9cdd081c1c9bd91d58dd609a1b81525073dee7796e89c82c36badd1375076f39d69fafe2526040518060400160405280600581526020016464656c686960d81b81525061008460201b60201c565b5061021a565b6000610098856001600160e01b0361014f16565b156100a557506000610147565b6000805460019081018083556040805160808101825289815260208082018a81526001600160a01b038a16838501526060830189905293865284815291909420845181559151805192936101019390850192919091019061017f565b5060408201516002820180546001600160a01b0319166001600160a01b039092169190911790556060820151805161014391600384019160209091019061017f565b5050505b949350505050565b600080548152600160205260408120600201546001600160a01b0316610176576000610179565b60015b92915050565b828054600181600116156101000203166002900490600052602060002090601f016020900481019282601f106101c057805160ff19168380011785556101ed565b828001600101855582156101ed579182015b828111156101ed5782518255916020019190600101906101d2565b506101f99291506101fd565b5090565b61021791905b808211156101f95760008155600101610203565b90565b61060c806102296000396000f3fe608060405234801561001057600080fd5b506004361061004c5760003560e01c806318f6255a14610051578063af55ed64146101aa578063b5d44e1b146101c7578063e0f6ef87146102e2575b600080fd5b6101966004803603608081101561006757600080fd5b8135919081019060408101602082013564010000000081111561008957600080fd5b82018360208201111561009b57600080fd5b803590602001918460018302840111640100000000831117156100bd57600080fd5b91908080601f01602080910402602001604051908101604052809392919081815260200183838082843760009201919091525092956001600160a01b0385351695909490935060408101925060200135905064010000000081111561012157600080fd5b82018360208201111561013357600080fd5b8035906020019184600183028401116401000000008311171561015557600080fd5b91908080601f0160208091040260200160405190810160405280939291908181526020018383808284376000920191909152509295506102fc945050505050565b604080519115158252519081900360200190f35b610196600480360360208110156101c057600080fd5b50356103be565b6101e4600480360360208110156101dd57600080fd5b50356103ee565b6040518085815260200180602001846001600160a01b03166001600160a01b0316815260200180602001838103835286818151815260200191508051906020019080838360005b8381101561024357818101518382015260200161022b565b50505050905090810190601f1680156102705780820380516001836020036101000a031916815260200191505b50838103825284518152845160209182019186019080838360005b838110156102a357818101518382015260200161028b565b50505050905090810190601f1680156102d05780820380516001836020036101000a031916815260200191505b50965050505050505060405180910390f35b6102ea610536565b60408051918252519081900360200190f35b6000610307856103be565b15610314575060006103b6565b6000805460019081018083556040805160808101825289815260208082018a81526001600160a01b038a16838501526060830189905293865284815291909420845181559151805192936103709390850192919091019061053c565b5060408201516002820180546001600160a01b0319166001600160a01b03909216919091179055606082015180516103b291600384019160209091019061053c565b5050505b949350505050565b600080548152600160205260408120600201546001600160a01b03166103e55760006103e8565b60015b92915050565b600160208181526000928352604092839020805481840180548651600296821615610100026000190190911695909504601f8101859004850286018501909652858552909491939290919083018282801561048a5780601f1061045f5761010080835404028352916020019161048a565b820191906000526020600020905b81548152906001019060200180831161046d57829003601f168201915b505050506002838101546003850180546040805160206101006001851615026000190190931695909504601f810183900483028601830190915280855295966001600160a01b039093169592945090919083018282801561052c5780601f106105015761010080835404028352916020019161052c565b820191906000526020600020905b81548152906001019060200180831161050f57829003601f168201915b5050505050905084565b60005481565b828054600181600116156101000203166002900490600052602060002090601f016020900481019282601f1061057d57805160ff19168380011785556105aa565b828001600101855582156105aa579182015b828111156105aa57825182559160200191906001019061058f565b506105b69291506105ba565b5090565b6105d491905b808211156105b657600081556001016105c0565b9056fea265627a7a723158200e4f9c5672944f6fbf3b95677d6414f0fbbe975bc8cfbc724bbd19198b49191c64736f6c63430005100032",
  "source": "// SPDX-License-Identifier: MIT\r\npragma solidity >=0.4.0 <0.9.0;\r\n\r\ncontract Chain{\r\n    uint public productCount = 0;\r\n\r\n\r\n    struct Item{\r\n        /*id will be used to store product in map and to track the product */\r\n        uint id;\r\n        string productName;\r\n        address owner; //will be changed from string to address\r\n\r\n        /* store longitude and latitude of product at time of change of ownership */\r\n        string location;\r\n    }\r\n    mapping(uint => Item) public itemArray;\r\n\r\n    constructor() public{\r\n        //owner =msg.sender;\r\n        storeProduct(0,\"first product\",0xDEE7796E89C82C36BAdd1375076f39D69FafE252,'delhi');\r\n    }\r\n\r\n   /* replaced by the function storeProduct\r\n    function setInfo(uint _id,string memory _productName,address _owner,string memory _location) public{\r\n        productCount++;\r\n        itemArray[_id]=Item(_id, _productName,_owner,_location);\r\n        //itemArray[productCount]=Item(_id,_productName,_location);\r\n    }*/\r\n\r\n    \r\n\r\n    /* check whether a product with tracking id already exists in \r\n    array then return true else return true */\r\n\r\n    function productExists(uint _id) view public returns(bool){\r\n        return (itemArray[productCount].owner!=address(0)?true:false);\r\n    }\r\n\r\n    function storeProduct(uint _id,string memory _productName,address _owner,string memory _location) public returns(bool) {\r\n\r\n        if(productExists(_id)){\r\n          \r\n            return false;\r\n        }\r\n        productCount++;\r\n        itemArray[productCount]=Item(_id,_productName,_owner,_location);\r\n    }\r\n}",
  "sourcePath": "C:/Users/HARSH VASHISTHA/Desktop/Dapp_chain/contracts/Chain.sol",
  "compiler": {
    "name": "solc",
    "version": "0.5.16+commit.9c3226ce.Emscripten.clang"
  },
  "schemaVersion": "3.3.4",
  "updatedAt": "2021-04-13T16:29:49.887Z",
  "networkType": "ethereum",
  "devdoc": {
    "methods": {}
  },
  "userdoc": {
    "methods": {}
  }
}