{
  "contractName": "Chain",
  "abi": [
    {
      "inputs": [],
      "payable": false,
      "stateMutability": "nonpayable",
      "type": "constructor"
    },
    {
      "anonymous": false,
      "inputs": [
        {
          "indexed": false,
          "internalType": "uint256",
          "name": "_id",
          "type": "uint256"
        },
        {
          "indexed": false,
          "internalType": "string",
          "name": "_productName",
          "type": "string"
        },
        {
          "indexed": false,
          "internalType": "string",
          "name": "_location",
          "type": "string"
        }
      ],
      "name": "addProductCompleted",
      "type": "event"
    },
    {
      "anonymous": false,
      "inputs": [
        {
          "indexed": false,
          "internalType": "uint256",
          "name": "_id",
          "type": "uint256"
        },
        {
          "indexed": false,
          "internalType": "string",
          "name": "_location",
          "type": "string"
        }
      ],
      "name": "transferOwnerCompleted",
      "type": "event"
    },
    {
      "constant": true,
      "inputs": [
        {
          "internalType": "uint256",
          "name": "",
          "type": "uint256"
        }
      ],
      "name": "itemCurrentOwner",
      "outputs": [
        {
          "internalType": "address",
          "name": "",
          "type": "address"
        }
      ],
      "payable": false,
      "stateMutability": "view",
      "type": "function"
    },
    {
      "constant": true,
      "inputs": [
        {
          "internalType": "uint256",
          "name": "",
          "type": "uint256"
        }
      ],
      "name": "itemDetails",
      "outputs": [
        {
          "internalType": "uint256",
          "name": "id",
          "type": "uint256"
        },
        {
          "internalType": "uint256",
          "name": "ownerCount",
          "type": "uint256"
        },
        {
          "internalType": "string",
          "name": "productName",
          "type": "string"
        }
      ],
      "payable": false,
      "stateMutability": "view",
      "type": "function"
    },
    {
      "constant": true,
      "inputs": [
        {
          "internalType": "uint256",
          "name": "",
          "type": "uint256"
        },
        {
          "internalType": "uint256",
          "name": "",
          "type": "uint256"
        }
      ],
      "name": "itemOwnerHistory",
      "outputs": [
        {
          "internalType": "address",
          "name": "owner",
          "type": "address"
        },
        {
          "internalType": "string",
          "name": "location",
          "type": "string"
        }
      ],
      "payable": false,
      "stateMutability": "view",
      "type": "function"
    },
    {
      "constant": true,
      "inputs": [],
      "name": "productCount",
      "outputs": [
        {
          "internalType": "uint256",
          "name": "",
          "type": "uint256"
        }
      ],
      "payable": false,
      "stateMutability": "view",
      "type": "function"
    },
    {
      "constant": true,
      "inputs": [
        {
          "internalType": "uint256",
          "name": "_id",
          "type": "uint256"
        }
      ],
      "name": "productExists",
      "outputs": [
        {
          "internalType": "bool",
          "name": "",
          "type": "bool"
        }
      ],
      "payable": false,
      "stateMutability": "view",
      "type": "function"
    },
    {
      "constant": false,
      "inputs": [
        {
          "internalType": "uint256",
          "name": "_id",
          "type": "uint256"
        },
        {
          "internalType": "string",
          "name": "_productName",
          "type": "string"
        },
        {
          "internalType": "string",
          "name": "_location",
          "type": "string"
        }
      ],
      "name": "addProduct",
      "outputs": [
        {
          "internalType": "bool",
          "name": "",
          "type": "bool"
        }
      ],
      "payable": false,
      "stateMutability": "nonpayable",
      "type": "function"
    },
    {
      "constant": false,
      "inputs": [
        {
          "internalType": "uint256",
          "name": "_id",
          "type": "uint256"
        },
        {
          "internalType": "string",
          "name": "_location",
          "type": "string"
        }
      ],
      "name": "transferOwner",
      "outputs": [
        {
          "internalType": "bool",
          "name": "",
          "type": "bool"
        }
      ],
      "payable": false,
      "stateMutability": "nonpayable",
      "type": "function"
    }
  ],
  "bytecode": "0x6080604052600080553480156200001557600080fd5b506200006c60006040518060400160405280600d81526020016c199a5c9cdd081c1c9bd91d58dd609a1b8152506040518060400160405280600581526020016464656c686960d81b8152506200007360201b60201c565b50620003ab565b600062000089846001600160e01b03620002c016565b156200009857506000620002b9565b600084815260036020908152604080832080546001600160a01b0319163317905582546001908101845581516060810183528881528084018581528184018981528a87528386529390952081518155945191850191909155905180519193926200010b92600285019290910190620002ee565b50505060008481526001602081905260409091208101805490910190556200013262000373565b50604080518082018252338152602080820185815260008881526002808452948120805460018082018084559284529285902086519190970290960180546001600160a01b0319166001600160a01b0390971696909617865591518051949592948694620001a5938501920190620002ee565b505050507f411c4f39a69692bdb5eee20aa4b2ae5f73c7ab2054b799b63942829587f27b1a858585604051808481526020018060200180602001838103835285818151815260200191508051906020019080838360005b8381101562000216578181015183820152602001620001fc565b50505050905090810190601f168015620002445780820380516001836020036101000a031916815260200191505b50838103825284518152845160209182019186019080838360005b83811015620002795781810151838201526020016200025f565b50505050905090810190601f168015620002a75780820380516001836020036101000a031916815260200191505b509550505050505060405180910390a1505b9392505050565b6000818152600360205260408120546001600160a01b0316620002e5576000620002e8565b60015b92915050565b828054600181600116156101000203166002900490600052602060002090601f016020900481019282601f106200033157805160ff191683800117855562000361565b8280016001018555821562000361579182015b828111156200036157825182559160200191906001019062000344565b506200036f9291506200038b565b5090565b60408051808201909152600081526060602082015290565b620003a891905b808211156200036f576000815560010162000392565b90565b610aa180620003bb6000396000f3fe608060405234801561001057600080fd5b506004361061007d5760003560e01c806358d9a0401161005b57806358d9a04014610212578063af55ed641461035a578063c99940ab14610377578063e0f6ef87146104245761007d565b80631fb4e3f0146100825780632231efd314610125578063471d27601461015e575b600080fd5b61009f6004803603602081101561009857600080fd5b503561043e565b6040518084815260200183815260200180602001828103825283818151815260200191508051906020019080838360005b838110156100e85781810151838201526020016100d0565b50505050905090810190601f1680156101155780820380516001836020036101000a031916815260200191505b5094505050505060405180910390f35b6101426004803603602081101561013b57600080fd5b5035610500565b604080516001600160a01b039092168252519081900360200190f35b6101816004803603604081101561017457600080fd5b508035906020013561051b565b60405180836001600160a01b03166001600160a01b0316815260200180602001828103825283818151815260200191508051906020019080838360005b838110156101d65781810151838201526020016101be565b50505050905090810190601f1680156102035780820380516001836020036101000a031916815260200191505b50935050505060405180910390f35b6103466004803603606081101561022857600080fd5b8135919081019060408101602082013564010000000081111561024a57600080fd5b82018360208201111561025c57600080fd5b8035906020019184600183028401116401000000008311171561027e57600080fd5b91908080601f01602080910402602001604051908101604052809392919081815260200183838082843760009201919091525092959493602081019350359150506401000000008111156102d157600080fd5b8201836020820111156102e357600080fd5b8035906020019184600183028401116401000000008311171561030557600080fd5b91908080601f0160208091040260200160405190810160405280939291908181526020018383808284376000920191909152509295506105e9945050505050565b604080519115158252519081900360200190f35b6103466004803603602081101561037057600080fd5b503561081d565b6103466004803603604081101561038d57600080fd5b813591908101906040810160208201356401000000008111156103af57600080fd5b8201836020820111156103c157600080fd5b803590602001918460018302840111640100000000831117156103e357600080fd5b91908080601f016020809104026020016040519081016040528093929190818152602001838380828437600092019190915250929550610849945050505050565b61042c6109b3565b60408051918252519081900360200190f35b6001602052806000526040600020600091509050806000015490806001015490806002018054600181600116156101000203166002900480601f0160208091040260200160405190810160405280929190818152602001828054600181600116156101000203166002900480156104f65780601f106104cb576101008083540402835291602001916104f6565b820191906000526020600020905b8154815290600101906020018083116104d957829003601f168201915b5050505050905083565b6003602052600090815260409020546001600160a01b031681565b6002602052816000526040600020818154811061053457fe5b600091825260209182902060029182020180546001808301805460408051601f600019958416156101000295909501909216969096049283018790048702810187019095528185526001600160a01b03909216965091945091928301828280156105df5780601f106105b4576101008083540402835291602001916105df565b820191906000526020600020905b8154815290600101906020018083116105c257829003601f168201915b5050505050905082565b60006105f48461081d565b1561060157506000610816565b600084815260036020908152604080832080546001600160a01b0319163317905582546001908101845581516060810183528881528084018581528184018981528a8752838652939095208151815594519185019190915590518051919392610672926002850192909101906109b9565b5050506000848152600160208190526040909120810180549091019055610697610a37565b50604080518082018252338152602080820185815260008881526002808452948120805460018082018084559284529285902086519190970290960180546001600160a01b0319166001600160a01b03909716969096178655915180519495929486946107089385019201906109b9565b505050507f411c4f39a69692bdb5eee20aa4b2ae5f73c7ab2054b799b63942829587f27b1a858585604051808481526020018060200180602001838103835285818151815260200191508051906020019080838360005b8381101561077757818101518382015260200161075f565b50505050905090810190601f1680156107a45780820380516001836020036101000a031916815260200191505b50838103825284518152845160209182019186019080838360005b838110156107d75781810151838201526020016107bf565b50505050905090810190601f1680156108045780820380516001836020036101000a031916815260200191505b509550505050505060405180910390a1505b9392505050565b6000818152600360205260408120546001600160a01b0316610840576000610843565b60015b92915050565b6000828152600360205260408120546001600160a01b031633141561087057506000610843565b600083815260036020526040902080546001600160a01b03191633179055610896610a37565b50604080518082018252338152602080820185815260008781526002808452948120805460018082018084559284529285902086519190970290960180546001600160a01b0319166001600160a01b03909716969096178655915180519495929486946109079385019201906109b9565b505050507fc3f2aa230dbb0e4f66ad686631baa375121c2f41ce6867ce5c5abfb8ce26170584846040518083815260200180602001828103825283818151815260200191508051906020019080838360005b83811015610971578181015183820152602001610959565b50505050905090810190601f16801561099e5780820380516001836020036101000a031916815260200191505b50935050505060405180910390a15092915050565b60005481565b828054600181600116156101000203166002900490600052602060002090601f016020900481019282601f106109fa57805160ff1916838001178555610a27565b82800160010185558215610a27579182015b82811115610a27578251825591602001919060010190610a0c565b50610a33929150610a4f565b5090565b60408051808201909152600081526060602082015290565b610a6991905b80821115610a335760008155600101610a55565b9056fea265627a7a72315820d7b2a315110b0b9e2cd76e3488088113fc025f3a4b6977002495a0d3a288940564736f6c63430005100032",
  "source": "// SPDX-License-Identifier: MIT\r\npragma solidity >=0.4.0 <0.9.0;\r\n\r\ncontract Chain{\r\n    uint public productCount = 0;\r\n\r\n\r\n/*  \r\n    id - It will be used to store product in map and to track the product \r\n    productName - stores name of the item\r\n    owner - It is of type address that represent account of owner that uniqely identifies the user\r\n    location - stores the location of the item at a particular stage of supply chain\r\n*/\r\n\r\n    struct Item{\r\n        uint id;\r\n        uint ownerCount;\r\n        string productName;\r\n    }\r\n\r\n    struct OwnerDetails{\r\n        address owner;\r\n        string location;\r\n    }\r\n/* itemArray stores history of a product */\r\n    mapping(uint => Item) public itemDetails;\r\n    mapping(uint => OwnerDetails[]) public itemOwnerHistory;\r\n\r\n    mapping (uint => address) public itemCurrentOwner;\r\n\r\n    event addProductCompleted(\r\n        uint _id,\r\n        string _productName,\r\n        string _location\r\n    );\r\n\r\n    event transferOwnerCompleted(\r\n        uint _id,\r\n        string _location\r\n    );\r\n\r\n    constructor() public{\r\n        //owner =msg.sender;\r\n        addProduct(0,\"first product\",'delhi');\r\n    }\r\n\r\n/*\r\n    check whether a product with tracking id already exists in \r\n    array then return true else return true \r\n*/\r\n\r\n    function productExists(uint _id) view public returns(bool){\r\n        return (itemCurrentOwner[_id]!=address(0)?true:false);    //replace productCount with _id productCount is for development\r\n    }\r\n\r\n\r\n/*\r\n     let manufacturer to add new item in the list if item already exists then return without adding\r\n     item have a unique id _id , function update current owner of the product in itemOwner mapping\r\n     and push new owner data in itemArray mapping (contains all history of the product)\r\n*/\r\n\r\n//add address _owner arg \r\n    function addProduct(uint _id,string memory _productName,string memory _location) public returns(bool) {\r\n\r\n        if(productExists(_id)){\r\n            \r\n            return false; // item already exists\r\n        }\r\n        itemCurrentOwner[_id]=msg.sender;\r\n        productCount++;\r\n        itemDetails[_id]=Item(_id,0,_productName);\r\n        \r\n        itemDetails[_id].ownerCount++; // increase the count of owners of a product\r\n\r\n        OwnerDetails memory a=OwnerDetails(msg.sender,_location);\r\n        itemOwnerHistory[_id].push(a);\r\n\r\n        emit addProductCompleted(_id, _productName, _location);\r\n\r\n    }\r\n\r\n    \r\n    /*\r\n    scan item to store whereabouts of the product and change the owner of the product\r\n    */\r\n    function transferOwner(uint _id,string memory _location) public returns(bool){\r\n        //id of the shipment scanned usign QR code\r\n        if(msg.sender==itemCurrentOwner[_id]){\r\n            //item is already owner of the item\r\n            return false;\r\n        }\r\n\r\n        itemCurrentOwner[_id]=msg.sender;\r\n\r\n        OwnerDetails memory a=OwnerDetails(msg.sender,_location);\r\n        itemOwnerHistory[_id].push(a);\r\n\r\n        emit transferOwnerCompleted(_id, _location);\r\n    }\r\n    \r\n/*\r\n    function to return all whereabouts of the product with product-id _id\r\n */\r\n}",
  "sourcePath": "C:/Users/HARSH VASHISTHA/Desktop/Dapp_chain/contracts/Chain.sol",
  "compiler": {
    "name": "solc",
    "version": "0.5.16+commit.9c3226ce.Emscripten.clang"
  },
  "schemaVersion": "3.3.4",
  "updatedAt": "2021-04-14T09:56:30.354Z",
  "networkType": "ethereum",
  "devdoc": {
    "methods": {}
  },
  "userdoc": {
    "methods": {}
  }
}