{
  "contractName": "Chain",
  "abi": [
    {
      "inputs": [],
      "payable": false,
      "stateMutability": "nonpayable",
      "type": "constructor"
    },
    {
      "anonymous": false,
      "inputs": [
        {
          "indexed": false,
          "internalType": "uint256",
          "name": "_id",
          "type": "uint256"
        },
        {
          "indexed": false,
          "internalType": "string",
          "name": "_productName",
          "type": "string"
        },
        {
          "indexed": false,
          "internalType": "string",
          "name": "_location",
          "type": "string"
        }
      ],
      "name": "addProductCompleted",
      "type": "event"
    },
    {
      "anonymous": false,
      "inputs": [
        {
          "indexed": false,
          "internalType": "uint256",
          "name": "_id",
          "type": "uint256"
        },
        {
          "indexed": false,
          "internalType": "string",
          "name": "_location",
          "type": "string"
        }
      ],
      "name": "transferOwnerCompleted",
      "type": "event"
    },
    {
      "constant": true,
      "inputs": [
        {
          "internalType": "uint256",
          "name": "",
          "type": "uint256"
        }
      ],
      "name": "itemCurrentOwner",
      "outputs": [
        {
          "internalType": "address",
          "name": "",
          "type": "address"
        }
      ],
      "payable": false,
      "stateMutability": "view",
      "type": "function"
    },
    {
      "constant": true,
      "inputs": [
        {
          "internalType": "uint256",
          "name": "",
          "type": "uint256"
        }
      ],
      "name": "itemDetails",
      "outputs": [
        {
          "internalType": "uint256",
          "name": "id",
          "type": "uint256"
        },
        {
          "internalType": "uint256",
          "name": "ownerCount",
          "type": "uint256"
        },
        {
          "internalType": "string",
          "name": "productName",
          "type": "string"
        }
      ],
      "payable": false,
      "stateMutability": "view",
      "type": "function"
    },
    {
      "constant": true,
      "inputs": [
        {
          "internalType": "uint256",
          "name": "",
          "type": "uint256"
        },
        {
          "internalType": "uint256",
          "name": "",
          "type": "uint256"
        }
      ],
      "name": "itemOwnerHistory",
      "outputs": [
        {
          "internalType": "address",
          "name": "owner",
          "type": "address"
        },
        {
          "internalType": "string",
          "name": "location",
          "type": "string"
        }
      ],
      "payable": false,
      "stateMutability": "view",
      "type": "function"
    },
    {
      "constant": true,
      "inputs": [],
      "name": "productCount",
      "outputs": [
        {
          "internalType": "uint256",
          "name": "",
          "type": "uint256"
        }
      ],
      "payable": false,
      "stateMutability": "view",
      "type": "function"
    },
    {
      "constant": true,
      "inputs": [
        {
          "internalType": "uint256",
          "name": "_id",
          "type": "uint256"
        }
      ],
      "name": "productExists",
      "outputs": [
        {
          "internalType": "bool",
          "name": "",
          "type": "bool"
        }
      ],
      "payable": false,
      "stateMutability": "view",
      "type": "function"
    },
    {
      "constant": false,
      "inputs": [
        {
          "internalType": "uint256",
          "name": "_id",
          "type": "uint256"
        },
        {
          "internalType": "string",
          "name": "_productName",
          "type": "string"
        },
        {
          "internalType": "string",
          "name": "_location",
          "type": "string"
        }
      ],
      "name": "addProduct",
      "outputs": [
        {
          "internalType": "bool",
          "name": "",
          "type": "bool"
        }
      ],
      "payable": false,
      "stateMutability": "nonpayable",
      "type": "function"
    },
    {
      "constant": false,
      "inputs": [
        {
          "internalType": "uint256",
          "name": "_id",
          "type": "uint256"
        },
        {
          "internalType": "string",
          "name": "_location",
          "type": "string"
        }
      ],
      "name": "transferOwner",
      "outputs": [
        {
          "internalType": "bool",
          "name": "",
          "type": "bool"
        }
      ],
      "payable": false,
      "stateMutability": "nonpayable",
      "type": "function"
    },
    {
      "constant": true,
      "inputs": [
        {
          "internalType": "uint256",
          "name": "_id",
          "type": "uint256"
        }
      ],
      "name": "getownerHistory",
      "outputs": [
        {
          "components": [
            {
              "internalType": "address",
              "name": "owner",
              "type": "address"
            },
            {
              "internalType": "string",
              "name": "location",
              "type": "string"
            }
          ],
          "internalType": "struct Chain.OwnerDetails[]",
          "name": "",
          "type": "tuple[]"
        }
      ],
      "payable": false,
      "stateMutability": "view",
      "type": "function"
    }
  ],
  "bytecode": "0x6080604052600080553480156200001557600080fd5b506200006c60006040518060400160405280600d81526020016c199a5c9cdd081c1c9bd91d58dd609a1b8152506040518060400160405280600581526020016464656c686960d81b8152506200007360201b60201c565b50620003b8565b600062000089846001600160e01b03620001ef16565b156200009857506000620001e8565b600084815260036020908152604080832080546001600160a01b0319163317905582546001908101845581516060810183528881528084018581528184018981528a87528386529390952081518155945191850191909155905180519193926200010b926002850192909101906200021d565b505050600084815260016020819052604090912081018054909101905562000132620002a2565b50604080518082018252338152602080820185815260008881526002808452948120805460018082018084559284529285902086519190970290960180546001600160a01b0319166001600160a01b0390971696909617865591518051949592948694620001a59385019201906200021d565b505050507f411c4f39a69692bdb5eee20aa4b2ae5f73c7ab2054b799b63942829587f27b1a858585604051620001de939291906200032b565b60405180910390a1505b9392505050565b6000818152600360205260408120546001600160a01b03166200021457600062000217565b60015b92915050565b828054600181600116156101000203166002900490600052602060002090601f016020900481019282601f106200026057805160ff191683800117855562000290565b8280016001018555821562000290579182015b828111156200029057825182559160200191906001019062000273565b506200029e929150620002ba565b5090565b60408051808201909152600081526060602082015290565b620002d791905b808211156200029e5760008155600101620002c1565b90565b6000620002e7826200036e565b620002f3818562000372565b9350620003058185602086016200037b565b6200031081620003ae565b9093019392505050565b6200032581620002d7565b82525050565b606081016200033b82866200031a565b81810360208301526200034f8185620002da565b90508181036040830152620003658184620002da565b95945050505050565b5190565b90815260200190565b60005b83811015620003985781810151838201526020016200037e565b83811115620003a8576000848401525b50505050565b601f01601f191690565b610bf580620003c86000396000f3fe608060405234801561001057600080fd5b50600436106100885760003560e01c8063af55ed641161005b578063af55ed6414610119578063c99940ab1461012c578063ced875551461013f578063e0f6ef871461015f57610088565b80631fb4e3f01461008d5780632231efd3146100b8578063471d2760146100d857806358d9a040146100f9575b600080fd5b6100a061009b3660046107e0565b610174565b6040516100af93929190610aaa565b60405180910390f35b6100cb6100c63660046107e0565b610236565b6040516100af9190610a0d565b6100eb6100e63660046108d5565b610251565b6040516100af929190610a1b565b61010c610107366004610858565b61031f565b6040516100af9190610a4c565b61010c6101273660046107e0565b610486565b61010c61013a366004610806565b6104b2565b61015261014d3660046107e0565b6105b4565b6040516100af9190610a3b565b6101676106c8565b6040516100af9190610a5a565b6001602052806000526040600020600091509050806000015490806001015490806002018054600181600116156101000203166002900480601f01602080910402602001604051908101604052809291908181526020018280546001816001161561010002031660029004801561022c5780601f106102015761010080835404028352916020019161022c565b820191906000526020600020905b81548152906001019060200180831161020f57829003601f168201915b5050505050905083565b6003602052600090815260409020546001600160a01b031681565b6002602052816000526040600020818154811061026a57fe5b600091825260209182902060029182020180546001808301805460408051601f600019958416156101000295909501909216969096049283018790048702810187019095528185526001600160a01b03909216965091945091928301828280156103155780601f106102ea57610100808354040283529160200191610315565b820191906000526020600020905b8154815290600101906020018083116102f857829003601f168201915b5050505050905082565b600061032a84610486565b156103375750600061047f565b600084815260036020908152604080832080546001600160a01b0319163317905582546001908101845581516060810183528881528084018581528184018981528a87528386529390952081518155945191850191909155905180519193926103a8926002850192909101906106ce565b50505060008481526001602081905260409091208101805490910190556103cd61074c565b50604080518082018252338152602080820185815260008881526002808452948120805460018082018084559284529285902086519190970290960180546001600160a01b0319166001600160a01b039097169690961786559151805194959294869461043e9385019201906106ce565b505050507f411c4f39a69692bdb5eee20aa4b2ae5f73c7ab2054b799b63942829587f27b1a85858560405161047593929190610a76565b60405180910390a1505b9392505050565b6000818152600360205260408120546001600160a01b03166104a95760006104ac565b60015b92915050565b6000828152600360205260408120546001600160a01b03163314156104d9575060006104ac565b600083815260036020526040902080546001600160a01b031916331790556104ff61074c565b50604080518082018252338152602080820185815260008781526002808452948120805460018082018084559284529285902086519190970290960180546001600160a01b0319166001600160a01b03909716969096178655915180519495929486946105709385019201906106ce565b505050507fc3f2aa230dbb0e4f66ad686631baa375121c2f41ce6867ce5c5abfb8ce26170584846040516105a5929190610a68565b60405180910390a15092915050565b606060026000838152602001908152602001600020805480602002602001604051908101604052809291908181526020016000905b828210156106bd576000848152602090819020604080518082018252600286810290930180546001600160a01b031682526001808201805485516101009382161593909302600019011695909504601f8101879004870282018701909452838152919490938582019390918301828280156106a55780601f1061067a576101008083540402835291602001916106a5565b820191906000526020600020905b81548152906001019060200180831161068857829003601f168201915b505050505081525050815260200190600101906105e9565b505050509050919050565b60005481565b828054600181600116156101000203166002900490600052602060002090601f016020900481019282601f1061070f57805160ff191683800117855561073c565b8280016001018555821561073c579182015b8281111561073c578251825591602001919060010190610721565b50610748929150610764565b5090565b60408051808201909152600081526060602082015290565b61077e91905b80821115610748576000815560010161076a565b90565b600082601f83011261079257600080fd5b81356107a56107a082610afe565b610ad7565b915080825260208301602083018583830111156107c157600080fd5b6107cc838284610b55565b50505092915050565b80356104ac81610b9b565b6000602082840312156107f257600080fd5b60006107fe84846107d5565b949350505050565b6000806040838503121561081957600080fd5b600061082585856107d5565b925050602083013567ffffffffffffffff81111561084257600080fd5b61084e85828601610781565b9150509250929050565b60008060006060848603121561086d57600080fd5b600061087986866107d5565b935050602084013567ffffffffffffffff81111561089657600080fd5b6108a286828701610781565b925050604084013567ffffffffffffffff8111156108bf57600080fd5b6108cb86828701610781565b9150509250925092565b600080604083850312156108e857600080fd5b60006108f485856107d5565b925050602061084e858286016107d5565b600061047f83836109cf565b61091a81610b39565b82525050565b600061092b82610b2c565b6109358185610b30565b93508360208202850161094785610b26565b8060005b8581101561098157848403895281516109648582610905565b945061096f83610b26565b60209a909a019992505060010161094b565b5091979650505050505050565b61091a81610b44565b60006109a282610b2c565b6109ac8185610b30565b93506109bc818560208601610b61565b6109c581610b91565b9093019392505050565b805160009060408401906109e38582610911565b50602083015184820360208601526109fb8282610997565b95945050505050565b61091a8161077e565b602081016104ac8284610911565b60408101610a298285610911565b81810360208301526107fe8184610997565b6020808252810161047f8184610920565b602081016104ac828461098e565b602081016104ac8284610a04565b60408101610a298285610a04565b60608101610a848286610a04565b8181036020830152610a968185610997565b905081810360408301526109fb8184610997565b60608101610ab88286610a04565b610ac56020830185610a04565b81810360408301526109fb8184610997565b60405181810167ffffffffffffffff81118282101715610af657600080fd5b604052919050565b600067ffffffffffffffff821115610b1557600080fd5b506020601f91909101601f19160190565b60200190565b5190565b90815260200190565b60006104ac82610b49565b151590565b6001600160a01b031690565b82818337506000910152565b60005b83811015610b7c578181015183820152602001610b64565b83811115610b8b576000848401525b50505050565b601f01601f191690565b610ba48161077e565b8114610baf57600080fd5b5056fea365627a7a723158207083e43b0c03d11aa27193df1e7fe8bbdc75237c281b96ac06c3576921e275896c6578706572696d656e74616cf564736f6c63430005100040",
  "source": "// SPDX-License-Identifier: MIT\r\npragma solidity >=0.4.0 <0.9.0;\r\npragma experimental ABIEncoderV2;\r\n\r\n\r\ncontract Chain{\r\n    uint public productCount = 0;\r\n\r\n\r\n/*  \r\n    id - It will be used to store product in map and to track the product \r\n    productName - stores name of the item\r\n    owner - It is of type address that represent account of owner that uniqely identifies the user\r\n    location - stores the location of the item at a particular stage of supply chain\r\n*/\r\n\r\n    struct Item{\r\n        uint id;\r\n        uint ownerCount;\r\n        string productName;\r\n    }\r\n\r\n    struct OwnerDetails{\r\n        address owner;\r\n        string location;\r\n    }\r\n/* itemArray stores history of a product */\r\n    mapping(uint => Item) public itemDetails;\r\n    mapping(uint => OwnerDetails[]) public itemOwnerHistory;\r\n\r\n    mapping (uint => address) public itemCurrentOwner;\r\n\r\n    event addProductCompleted(\r\n        uint _id,\r\n        string _productName,\r\n        string _location\r\n    );\r\n\r\n    event transferOwnerCompleted(\r\n        uint _id,\r\n        string _location\r\n    );\r\n\r\n    constructor() public{\r\n        //owner =msg.sender;\r\n        addProduct(0,\"first product\",'delhi');\r\n    }\r\n\r\n/*\r\n    check whether a product with tracking id already exists in \r\n    array then return true else return true \r\n*/\r\n\r\n    function productExists(uint _id) view public returns(bool){\r\n        return (itemCurrentOwner[_id]!=address(0)?true:false);    //replace productCount with _id productCount is for development\r\n    }\r\n\r\n\r\n/*\r\n     let manufacturer to add new item in the list if item already exists then return without adding\r\n     item have a unique id _id , function update current owner of the product in itemOwner mapping\r\n     and push new owner data in itemArray mapping (contains all history of the product)\r\n*/\r\n\r\n//add address _owner arg \r\n    function addProduct(uint _id,string memory _productName,string memory _location) public returns(bool) {\r\n\r\n        if(productExists(_id)){\r\n            \r\n            return false; // item already exists\r\n        }\r\n        itemCurrentOwner[_id]=msg.sender;\r\n        productCount++;\r\n        itemDetails[_id]=Item(_id,0,_productName);\r\n        \r\n        itemDetails[_id].ownerCount++; // increase the count of owners of a product\r\n\r\n        OwnerDetails memory a=OwnerDetails(msg.sender,_location);\r\n        itemOwnerHistory[_id].push(a);\r\n\r\n        emit addProductCompleted(_id, _productName, _location);\r\n\r\n    }\r\n    \r\n    /*\r\n    scan item to store whereabouts of the product and change the owner of the product\r\n    */\r\n    function transferOwner(uint _id,string memory _location) public returns(bool){\r\n        //id of the shipment scanned usign QR code\r\n        if(msg.sender==itemCurrentOwner[_id]){\r\n            //item is already owner of the item\r\n            return false;\r\n        }\r\n\r\n        itemCurrentOwner[_id]=msg.sender;\r\n\r\n        OwnerDetails memory a=OwnerDetails(msg.sender,_location);\r\n        itemOwnerHistory[_id].push(a);\r\n\r\n        emit transferOwnerCompleted(_id, _location);\r\n    }\r\n    function getownerHistory(uint _id) public view returns( OwnerDetails[] memory){\r\n        return itemOwnerHistory[_id];\r\n    }\r\n/*\r\n    function to return all whereabouts of the product with product-id _id\r\n */\r\n}",
  "sourcePath": "C:/Users/HARSH VASHISTHA/Desktop/Dapp_chain/contracts/Chain.sol",
  "compiler": {
    "name": "solc",
    "version": "0.5.16+commit.9c3226ce.Emscripten.clang"
  },
  "schemaVersion": "3.3.4",
  "updatedAt": "2021-04-14T10:24:09.260Z",
  "networkType": "ethereum",
  "devdoc": {
    "methods": {}
  },
  "userdoc": {
    "methods": {}
  }
}