{
  "contractName": "Chain",
  "abi": [
    {
      "inputs": [],
      "payable": false,
      "stateMutability": "nonpayable",
      "type": "constructor"
    },
    {
      "anonymous": false,
      "inputs": [
        {
          "indexed": false,
          "internalType": "uint256",
          "name": "_id",
          "type": "uint256"
        },
        {
          "indexed": false,
          "internalType": "string",
          "name": "_productName",
          "type": "string"
        },
        {
          "indexed": false,
          "internalType": "string",
          "name": "_manufacture",
          "type": "string"
        },
        {
          "indexed": false,
          "internalType": "string",
          "name": "expiry",
          "type": "string"
        },
        {
          "indexed": false,
          "internalType": "string",
          "name": "_location",
          "type": "string"
        }
      ],
      "name": "addProductCompleted",
      "type": "event"
    },
    {
      "anonymous": false,
      "inputs": [
        {
          "indexed": false,
          "internalType": "uint256",
          "name": "_id",
          "type": "uint256"
        },
        {
          "indexed": false,
          "internalType": "address",
          "name": "_buyeraddress",
          "type": "address"
        }
      ],
      "name": "transferOwnerCompleted",
      "type": "event"
    },
    {
      "constant": true,
      "inputs": [
        {
          "internalType": "uint256",
          "name": "",
          "type": "uint256"
        }
      ],
      "name": "itemCurrentOwner",
      "outputs": [
        {
          "internalType": "address",
          "name": "",
          "type": "address"
        }
      ],
      "payable": false,
      "stateMutability": "view",
      "type": "function"
    },
    {
      "constant": true,
      "inputs": [
        {
          "internalType": "uint256",
          "name": "",
          "type": "uint256"
        }
      ],
      "name": "itemDetails",
      "outputs": [
        {
          "internalType": "uint256",
          "name": "id",
          "type": "uint256"
        },
        {
          "internalType": "uint256",
          "name": "ownerCount",
          "type": "uint256"
        },
        {
          "internalType": "string",
          "name": "productName",
          "type": "string"
        },
        {
          "internalType": "string",
          "name": "expiry",
          "type": "string"
        },
        {
          "internalType": "string",
          "name": "manufacture",
          "type": "string"
        },
        {
          "internalType": "string",
          "name": "location",
          "type": "string"
        }
      ],
      "payable": false,
      "stateMutability": "view",
      "type": "function"
    },
    {
      "constant": true,
      "inputs": [
        {
          "internalType": "uint256",
          "name": "",
          "type": "uint256"
        },
        {
          "internalType": "uint256",
          "name": "",
          "type": "uint256"
        }
      ],
      "name": "itemOwnerHistory",
      "outputs": [
        {
          "internalType": "address",
          "name": "owner",
          "type": "address"
        },
        {
          "internalType": "string",
          "name": "purchaseDate",
          "type": "string"
        }
      ],
      "payable": false,
      "stateMutability": "view",
      "type": "function"
    },
    {
      "constant": true,
      "inputs": [],
      "name": "productCount",
      "outputs": [
        {
          "internalType": "uint256",
          "name": "",
          "type": "uint256"
        }
      ],
      "payable": false,
      "stateMutability": "view",
      "type": "function"
    },
    {
      "constant": true,
      "inputs": [
        {
          "internalType": "uint256",
          "name": "_id",
          "type": "uint256"
        }
      ],
      "name": "productExists",
      "outputs": [
        {
          "internalType": "bool",
          "name": "",
          "type": "bool"
        }
      ],
      "payable": false,
      "stateMutability": "view",
      "type": "function"
    },
    {
      "constant": false,
      "inputs": [
        {
          "internalType": "uint256",
          "name": "_id",
          "type": "uint256"
        },
        {
          "internalType": "string",
          "name": "_productName",
          "type": "string"
        },
        {
          "internalType": "string",
          "name": "_manufacture",
          "type": "string"
        },
        {
          "internalType": "string",
          "name": "_expiry",
          "type": "string"
        },
        {
          "internalType": "string",
          "name": "_location",
          "type": "string"
        }
      ],
      "name": "addProduct",
      "outputs": [
        {
          "internalType": "bool",
          "name": "",
          "type": "bool"
        }
      ],
      "payable": false,
      "stateMutability": "nonpayable",
      "type": "function"
    },
    {
      "constant": false,
      "inputs": [
        {
          "internalType": "uint256",
          "name": "_id",
          "type": "uint256"
        },
        {
          "internalType": "address",
          "name": "_buyeraddress",
          "type": "address"
        },
        {
          "internalType": "string",
          "name": "_purchaseDate",
          "type": "string"
        }
      ],
      "name": "transferOwner",
      "outputs": [
        {
          "internalType": "string",
          "name": "",
          "type": "string"
        }
      ],
      "payable": false,
      "stateMutability": "nonpayable",
      "type": "function"
    },
    {
      "constant": true,
      "inputs": [
        {
          "internalType": "uint256",
          "name": "_id",
          "type": "uint256"
        }
      ],
      "name": "getownerHistory",
      "outputs": [
        {
          "components": [
            {
              "internalType": "address",
              "name": "owner",
              "type": "address"
            },
            {
              "internalType": "string",
              "name": "purchaseDate",
              "type": "string"
            }
          ],
          "internalType": "struct Chain.OwnerDetails[]",
          "name": "",
          "type": "tuple[]"
        }
      ],
      "payable": false,
      "stateMutability": "view",
      "type": "function"
    },
    {
      "constant": true,
      "inputs": [
        {
          "internalType": "uint256",
          "name": "_id",
          "type": "uint256"
        }
      ],
      "name": "getPorductDetails",
      "outputs": [
        {
          "components": [
            {
              "internalType": "uint256",
              "name": "id",
              "type": "uint256"
            },
            {
              "internalType": "uint256",
              "name": "ownerCount",
              "type": "uint256"
            },
            {
              "internalType": "string",
              "name": "productName",
              "type": "string"
            },
            {
              "internalType": "string",
              "name": "expiry",
              "type": "string"
            },
            {
              "internalType": "string",
              "name": "manufacture",
              "type": "string"
            },
            {
              "internalType": "string",
              "name": "location",
              "type": "string"
            }
          ],
          "internalType": "struct Chain.Item",
          "name": "",
          "type": "tuple"
        }
      ],
      "payable": false,
      "stateMutability": "view",
      "type": "function"
    }
  ],
  "bytecode": "0x6080604052600080553480156200001557600080fd5b50620000ae60006040518060400160405280600d81526020016c199a5c9cdd081c1c9bd91d58dd609a1b81525060405180604001604052806008815260200167312d312d3230323160c01b81525060405180604001604052806008815260200167312d312d3230323160c01b8152506040518060400160405280600581526020016464656c686960d81b815250620000b560201b60201c565b506200049d565b6000620000cb866001600160e01b03620002a616565b15620000da575060006200029d565b600086815260036020908152604080832080546001600160a01b03191633179055825460019081018455815160c0810183528a81528084018581528184018b8152606083018a9052608083018b905260a083018990528c87528386529390952081518155945191850191909155905180519193926200016292600285019290910190620002d4565b506060820151805162000180916003840191602090910190620002d4565b50608082015180516200019e916004840191602090910190620002d4565b5060a08201518051620001bc916005840191602090910190620002d4565b5050506000868152600160208190526040909120810180549091019055620001e362000359565b50604080518082018252338152602080820187815260008a81526002808452948120805460018082018084559284529285902086519190970290960180546001600160a01b0319166001600160a01b039097169690961786559151805194959294869462000256938501920190620002d4565b505050507f0f81ae69d9caedda0f17c2e7fd7de38ca6777cb52635c6311d2ec33f3bbbe8f2878787878760405162000293959493929190620003e2565b60405180910390a1505b95945050505050565b6000818152600360205260408120546001600160a01b0316620002cb576000620002ce565b60015b92915050565b828054600181600116156101000203166002900490600052602060002090601f016020900481019282601f106200031757805160ff191683800117855562000347565b8280016001018555821562000347579182015b82811115620003475782518255916020019190600101906200032a565b506200035592915062000371565b5090565b60408051808201909152600081526060602082015290565b6200038e91905b8082111562000355576000815560010162000378565b90565b60006200039e8262000453565b620003aa818562000457565b9350620003bc81856020860162000460565b620003c78162000493565b9093019392505050565b620003dc816200038e565b82525050565b60a08101620003f28288620003d1565b818103602083015262000406818762000391565b905081810360408301526200041c818662000391565b9050818103606083015262000432818562000391565b9050818103608083015262000448818462000391565b979650505050505050565b5190565b90815260200190565b60005b838110156200047d57818101518382015260200162000463565b838111156200048d576000848401525b50505050565b601f01601f191690565b61132a80620004ad6000396000f3fe608060405234801561001057600080fd5b50600436106100935760003560e01c8063af55ed6411610066578063af55ed6414610127578063ced8755514610147578063d1eacd6214610167578063e0f6ef871461017a578063e9d08fe01461018f57610093565b80631fb4e3f0146100985780632231efd3146100c6578063471d2760146100e65780634c96598614610107575b600080fd5b6100ab6100a6366004610d44565b6101af565b6040516100bd96959493929190611169565b60405180910390f35b6100d96100d4366004610d44565b610421565b6040516100bd919061106a565b6100f96100f4366004610ea4565b61043c565b6040516100bd929190611078565b61011a610115366004610d6a565b61050a565b6040516100bd91906110b7565b61013a610135366004610d44565b610653565b6040516100bd91906110a9565b61015a610155366004610d44565b61067f565b6040516100bd9190611098565b61013a610175366004610dcf565b610793565b610182610969565b6040516100bd91906110d9565b6101a261019d366004610d44565b61096f565b6040516100bd91906110c8565b6001602052806000526040600020600091509050806000015490806001015490806002018054600181600116156101000203166002900480601f0160208091040260200160405190810160405280929190818152602001828054600181600116156101000203166002900480156102675780601f1061023c57610100808354040283529160200191610267565b820191906000526020600020905b81548152906001019060200180831161024a57829003601f168201915b5050505060038301805460408051602060026001851615610100026000190190941693909304601f81018490048402820184019092528181529495949350908301828280156102f75780601f106102cc576101008083540402835291602001916102f7565b820191906000526020600020905b8154815290600101906020018083116102da57829003601f168201915b5050505060048301805460408051602060026001851615610100026000190190941693909304601f81018490048402820184019092528181529495949350908301828280156103875780601f1061035c57610100808354040283529160200191610387565b820191906000526020600020905b81548152906001019060200180831161036a57829003601f168201915b5050505060058301805460408051602060026001851615610100026000190190941693909304601f81018490048402820184019092528181529495949350908301828280156104175780601f106103ec57610100808354040283529160200191610417565b820191906000526020600020905b8154815290600101906020018083116103fa57829003601f168201915b5050505050905086565b6003602052600090815260409020546001600160a01b031681565b6002602052816000526040600020818154811061045557fe5b600091825260209182902060029182020180546001808301805460408051601f600019958416156101000295909501909216969096049283018790048702810187019095528185526001600160a01b03909216965091945091928301828280156105005780601f106104d557610100808354040283529160200191610500565b820191906000526020600020905b8154815290600101906020018083116104e357829003601f168201915b5050505050905082565b6000838152600360205260409020546060906001600160a01b0316331461054b576040518060600160405280602581526020016112c360259139905061064c565b6000848152600360205260409020546001600160a01b031633141561064c57600084815260036020526040902080546001600160a01b0319166001600160a01b038516179055610599610bf1565b506040805180820182526001600160a01b038581168252602080830186815260008981526002808452958120805460018082018084559284529285902087519190980290970180546001600160a01b031916979095169690961784559051805194959486949361060d938501920190610c09565b505050507f84631ecb765a7eaeece46c9a8af5b96ecd01f1927d48c5b74b4a9cb6d70e197185856040516106429291906110e7565b60405180910390a1505b9392505050565b6000818152600360205260408120546001600160a01b0316610676576000610679565b60015b92915050565b606060026000838152602001908152602001600020805480602002602001604051908101604052809291908181526020016000905b82821015610788576000848152602090819020604080518082018252600286810290930180546001600160a01b031682526001808201805485516101009382161593909302600019011695909504601f8101879004870282018701909452838152919490938582019390918301828280156107705780601f1061074557610100808354040283529160200191610770565b820191906000526020600020905b81548152906001019060200180831161075357829003601f168201915b505050505081525050815260200190600101906106b4565b505050509050919050565b600061079e86610653565b156107ab57506000610960565b600086815260036020908152604080832080546001600160a01b03191633179055825460019081018455815160c0810183528a81528084018581528184018b8152606083018a9052608083018b905260a083018990528c875283865293909520815181559451918501919091559051805191939261083192600285019290910190610c09565b506060820151805161084d916003840191602090910190610c09565b5060808201518051610869916004840191602090910190610c09565b5060a08201518051610885916005840191602090910190610c09565b50505060008681526001602081905260409091208101805490910190556108aa610bf1565b50604080518082018252338152602080820187815260008a81526002808452948120805460018082018084559284529285902086519190970290960180546001600160a01b0319166001600160a01b039097169690961786559151805194959294869461091b938501920190610c09565b505050507f0f81ae69d9caedda0f17c2e7fd7de38ca6777cb52635c6311d2ec33f3bbbe8f28787878787604051610956959493929190611102565b60405180910390a1505b95945050505050565b60005481565b610977610c87565b600082815260016020818152604092839020835160c0810185528154815281840154818401526002808301805487519681161561010002600019011691909104601f810185900485028601850187528086529195929492860193909190830182828015610a255780601f106109fa57610100808354040283529160200191610a25565b820191906000526020600020905b815481529060010190602001808311610a0857829003601f168201915b505050918352505060038201805460408051602060026001851615610100026000190190941693909304601f8101849004840282018401909252818152938201939291830182828015610ab95780601f10610a8e57610100808354040283529160200191610ab9565b820191906000526020600020905b815481529060010190602001808311610a9c57829003601f168201915b505050918352505060048201805460408051602060026001851615610100026000190190941693909304601f8101849004840282018401909252818152938201939291830182828015610b4d5780601f10610b2257610100808354040283529160200191610b4d565b820191906000526020600020905b815481529060010190602001808311610b3057829003601f168201915b505050918352505060058201805460408051602060026001851615610100026000190190941693909304601f8101849004840282018401909252818152938201939291830182828015610be15780601f10610bb657610100808354040283529160200191610be1565b820191906000526020600020905b815481529060010190602001808311610bc457829003601f168201915b5050505050815250509050919050565b60408051808201909152600081526060602082015290565b828054600181600116156101000203166002900490600052602060002090601f016020900481019282601f10610c4a57805160ff1916838001178555610c77565b82800160010185558215610c77579182015b82811115610c77578251825591602001919060010190610c5c565b50610c83929150610cbd565b5090565b6040518060c001604052806000815260200160008152602001606081526020016060815260200160608152602001606081525090565b610cd791905b80821115610c835760008155600101610cc3565b90565b8035610679816112a2565b600082601f830112610cf657600080fd5b8135610d09610d0482611205565b6111de565b91508082526020830160208301858383011115610d2557600080fd5b610d3083828461125c565b50505092915050565b8035610679816112b9565b600060208284031215610d5657600080fd5b6000610d628484610d39565b949350505050565b600080600060608486031215610d7f57600080fd5b6000610d8b8686610d39565b9350506020610d9c86828701610cda565b925050604084013567ffffffffffffffff811115610db957600080fd5b610dc586828701610ce5565b9150509250925092565b600080600080600060a08688031215610de757600080fd5b6000610df38888610d39565b955050602086013567ffffffffffffffff811115610e1057600080fd5b610e1c88828901610ce5565b945050604086013567ffffffffffffffff811115610e3957600080fd5b610e4588828901610ce5565b935050606086013567ffffffffffffffff811115610e6257600080fd5b610e6e88828901610ce5565b925050608086013567ffffffffffffffff811115610e8b57600080fd5b610e9788828901610ce5565b9150509295509295909350565b60008060408385031215610eb757600080fd5b6000610ec38585610d39565b9250506020610ed485828601610d39565b9150509250929050565b600061064c8383611035565b610ef381611240565b82525050565b6000610f0482611233565b610f0e8185611237565b935083602082028501610f208561122d565b8060005b85811015610f5a5784840389528151610f3d8582610ede565b9450610f488361122d565b60209a909a0199925050600101610f24565b5091979650505050505050565b610ef38161124b565b6000610f7b82611233565b610f858185611237565b9350610f95818560208601611268565b610f9e81611298565b9093019392505050565b805160009060c0840190610fbc8582611061565b506020830151610fcf6020860182611061565b5060408301518482036040860152610fe78282610f70565b915050606083015184820360608601526110018282610f70565b9150506080830151848203608086015261101b8282610f70565b91505060a083015184820360a08601526109608282610f70565b805160009060408401906110498582610eea565b50602083015184820360208601526109608282610f70565b610ef381610cd7565b602081016106798284610eea565b604081016110868285610eea565b8181036020830152610d628184610f70565b6020808252810161064c8184610ef9565b602081016106798284610f67565b6020808252810161064c8184610f70565b6020808252810161064c8184610fa8565b602081016106798284611061565b604081016110f58285611061565b61064c6020830184610eea565b60a081016111108288611061565b81810360208301526111228187610f70565b905081810360408301526111368186610f70565b9050818103606083015261114a8185610f70565b9050818103608083015261115e8184610f70565b979650505050505050565b60c081016111778289611061565b6111846020830188611061565b81810360408301526111968187610f70565b905081810360608301526111aa8186610f70565b905081810360808301526111be8185610f70565b905081810360a08301526111d28184610f70565b98975050505050505050565b60405181810167ffffffffffffffff811182821017156111fd57600080fd5b604052919050565b600067ffffffffffffffff82111561121c57600080fd5b506020601f91909101601f19160190565b60200190565b5190565b90815260200190565b600061067982611250565b151590565b6001600160a01b031690565b82818337506000910152565b60005b8381101561128357818101518382015260200161126b565b83811115611292576000848401525b50505050565b601f01601f191690565b6112ab81611240565b81146112b657600080fd5b50565b6112ab81610cd756fe63616e6e6f7420636865636b6f757420796f7520617265206e6f7420746865206f776e6572a365627a7a72315820c6133d3a020d792d6a6eb8409076feeaa5bf3b523342ef5a1ec2cd3601465d416c6578706572696d656e74616cf564736f6c63430005100040",
  "source": "// SPDX-License-Identifier: MIT\r\npragma solidity >=0.4.0 <0.9.0;\r\npragma experimental ABIEncoderV2;\r\n\r\n\r\ncontract Chain{\r\n    uint public productCount = 0;\r\n\r\n\r\n/*  \r\n    id - It will be used to store product in map and to track the product \r\n    productName - stores name of the item\r\n    owner - It is of type address that represent account of owner that uniqely identifies the user\r\n    location - stores the location of the item at a particular stage of supply chain\r\n*/\r\n    // struct Date{\r\n    //     uint day;\r\n    //     uint month;\r\n    //     uint year;\r\n    // }\r\n\r\n    struct Item{\r\n        uint id;\r\n        uint ownerCount;\r\n        string productName;\r\n        string expiry;\r\n        string manufacture;\r\n        string location;\r\n    }\r\n\r\n    struct OwnerDetails{\r\n        address owner;\r\n        // string name;\r\n        // string owner_type;\r\n        string purchaseDate;\r\n    }\r\n/* itemArray stores history of a product */\r\n    mapping(uint => Item) public itemDetails;\r\n    mapping(uint => OwnerDetails[]) public itemOwnerHistory;\r\n    mapping (uint => address) public itemCurrentOwner;\r\n\r\n    event addProductCompleted(\r\n        uint _id,\r\n        string _productName,\r\n        string _manufacture,\r\n        string expiry,\r\n        string _location\r\n    );\r\n\r\n    event transferOwnerCompleted(\r\n        uint _id,\r\n        address _buyeraddress\r\n    );\r\n\r\n    constructor() public{\r\n        //owner =msg.sender;\r\n        addProduct(0,\"first product\",\"1-1-2021\",\"1-1-2021\",'delhi');\r\n    }\r\n\r\n/*\r\n    check whether a product with tracking id already exists in \r\n    array then return true else return true \r\n*/\r\n\r\n    function productExists(uint _id) view public returns(bool){\r\n        return (itemCurrentOwner[_id]!=address(0)?true:false);    //replace productCount with _id productCount is for development\r\n    }\r\n\r\n\r\n/*\r\n     let manufacturer to add new item in the list if item already exists then return without adding\r\n     item have a unique id _id , function update current owner of the product in itemOwner mapping\r\n     and push new owner data in itemArray mapping (contains all history of the product)\r\n*/\r\n\r\n//add address _owner arg \r\n    function addProduct(uint _id,string memory _productName,string memory _manufacture,string memory _expiry,string memory _location) public returns(bool) {\r\n\r\n        if(productExists(_id)){\r\n            \r\n            return false; // item already exists\r\n        }\r\n        itemCurrentOwner[_id]=msg.sender;\r\n        productCount++;\r\n        itemDetails[_id]=Item(_id,0/*ownercount */,_productName,_expiry,_manufacture,_location);\r\n        \r\n        itemDetails[_id].ownerCount++; // increase the count of owners of a product\r\n\r\n        OwnerDetails memory a=OwnerDetails(msg.sender,_manufacture);\r\n        itemOwnerHistory[_id].push(a);\r\n\r\n        emit addProductCompleted(_id, _productName, _manufacture ,_expiry,_location);\r\n\r\n    }\r\n    \r\n    \r\n/*\r\n    scan item to store whereabouts of the product and change the owner of the product\r\n*/\r\n    function transferOwner(uint _id, address _buyeraddress,string memory _purchaseDate) public returns(string memory){\r\n        //id of the shipment scanned usign QR code\r\n       \r\n        if(msg.sender!=itemCurrentOwner[_id] ){\r\n            //item is already owner of the item\r\n            return \"cannot checkout you are not the owner\";\r\n        }\r\n        else if( msg.sender==itemCurrentOwner[_id]){\r\n            itemCurrentOwner[_id]=_buyeraddress;\r\n            OwnerDetails memory a=OwnerDetails(_buyeraddress,_purchaseDate);\r\n            itemOwnerHistory[_id].push(a);\r\n            emit transferOwnerCompleted(_id, _buyeraddress);\r\n        }\r\n\r\n    }\r\n\r\n\r\n/*\r\n    function to return all whereabouts of the product with product-id _id\r\n*/\r\n    function getownerHistory(uint _id) public view returns( OwnerDetails[] memory){\r\n        return itemOwnerHistory[_id];\r\n    }\r\n/*\r\n    function to return details of a product\r\n*/\r\n    function getPorductDetails(uint _id) public view returns( Item memory){\r\n        return itemDetails[_id];\r\n    }\r\n\r\n}",
  "sourcePath": "C:/Users/HARSH VASHISTHA/Desktop/Dapp_chain/contracts/Chain.sol",
  "compiler": {
    "name": "solc",
    "version": "0.5.16+commit.9c3226ce.Emscripten.clang"
  },
  "schemaVersion": "3.3.4",
  "updatedAt": "2021-04-24T16:13:15.391Z",
  "networkType": "ethereum",
  "devdoc": {
    "methods": {}
  },
  "userdoc": {
    "methods": {}
  }
}